:020000040800F2
:10000000C05200202903000805360008792E000898
:10001000A9350008190600089D3F000800000000EF
:100020000000000000000000000000006D02000859
:10003000A908000800000000C102000825370008D8
:100040004303000843030008430300084303000878
:100050004303000843030008430300084303000868
:100060004303000843030008430300084303000858
:10007000D5070008430300084303000843030008B2
:10008000E1070008430300084303000829060008AD
:100090001D0600084303000843030008430300084B
:1000A0004303000843030008430300084303000818
:1000B0004303000843030008430300084303000808
:1000C00043030008430300084303000843030008F8
:1000D00043030008893E0008A13E0008B93E00081D
:1000E00043030008430300084303000843030008D8
:1000F00043030008430300084303000843030008C8
:1001000043030008430300084303000843030008B7
:100110004303000843030008213800084303000894
:1001200043030008ED070008F9070008430300082F
:100130004303000843030008430300084106000886
:100140003506000843030008430300084303000882
:10015000430300084303000843030008D13E00089E
:100160004303000843030008430300084303000857
:100170004303000843030008430300080000000095
:100180004303000843030008430300084303000837
:100190004303000843030008430300084303000827
:1001A00000000000000000004303000800F002F817
:1001B00000F04CF80AA090E8000C82448344AAF1B5
:1001C0000107DA4501D100F041F8AFF2090EBAE8B3
:1001D0000F0013F0010F18BFFB1A43F0010318477B
:1001E000A46F0000C46F00000A4410F8014B14F023
:1001F0000F0508BF10F8015B240908BF10F8014B78
:100200006D1E05D010F8013B6D1E01F8013BF9D1C0
:10021000641E03D0641E01F8015BFBD19142E4D35C
:10022000704700000023002400250026103A28BF54
:1002300078C1FBD8520728BF30C148BF0B60704758
:100240001FB506F0C0FD1FBD10B510BD00F05CF974
:100250001146FFF7F5FF04F013FF00F07AF903B43D
:10026000FFF7F2FF03BC00F07DF900002B4B19688B
:100270000868B0E8F04F80F30988BFF36F8F4FF044
:10028000000080F3118870470000000006480068F5
:10029000006880F3088862B661B6BFF34F8FBFF382
:1002A0006F8F00DF00BF00BF08ED00E0DFF80C003B
:1002B000016841F470010160704700BF88ED00E003
:1002C000EFF30980BFF36F8F144B1A681EF0100F05
:1002D00008BF20ED108A20E9F04F106008B44FF0FD
:1002E000500080F31188BFF34F8FBFF36F8F05F07D
:1002F0009FFF4FF0000080F3118808BC1968086860
:10030000B0E8F04F1EF0100F08BFB0EC108A80F379
:100310000988BFF36F8F704700BF00BFBC0000208B
:10032000EFF30580704700000948804709480047FF
:10033000FEE7FEE7FEE7FEE7FEE7FEE7FEE7FEE795
:10034000FEE7FEE704480549054A064B70470000F2
:10035000CD370008AD010008C04C0020C05200207D
:10036000C04E0020C04E0020032A40F2308010F022
:10037000030C00F0158011F8013BBCF1020F624440
:1003800098BF11F801CB00F8013B38BF11F8013BD1
:10039000A2F1040298BF00F801CB38BF00F8013B7E
:1003A00011F0030300F02580083AC0F0088051F8EE
:1003B000043B083A51F804CBA0E80810F5E7121DF9
:1003C0005CBF51F8043B40F8043BAFF30080D20718
:1003D00024BF11F8013B11F801CB48BF11F8012BE4
:1003E00024BF00F8013B00F801CB48BF00F8012B07
:1003F000704710B5203AC0F00B80B1E81850203A91
:10040000A0E81850B1E81850A0E81850BFF4F5AFB4
:100410005FEA027C24BFB1E81850A0E8185044BF3E
:1004200018C918C0BDE810405FEA827C24BF51F8AB
:10043000043B40F8043B08BF7047D20728BF31F89F
:10044000023B48BF11F8012B28BF20F8023B48BFF0
:1004500000F8012B704702F0FF0343EA032242EA4F
:10046000024200F005B87047704770474FF0000235
:100470000429C0F0128010F0030C00F01B80CCF1B6
:10048000040CBCF1020F18BF00F8012BA8BF20F824
:10049000022BA1EB0C0100F00DB85FEAC17C24BF78
:1004A00000F8012B00F8012B48BF00F8012B704722
:1004B0004FF0000200B5134694469646203922BFFD
:1004C000A0E80C50A0E80C50B1F12001BFF4F7AF48
:1004D000090728BFA0E80C5048BF0CC05DF804EB2A
:1004E000890028BF40F8042B08BF704748BF20F898
:1004F000022B11F0804F18BF00F8012B704700004D
:10050000004870475C4C00207546FFF7F9FFAE4687
:1005100005006946534620F00700854618B020B50F
:10052000FFF710FFBDE820404FF000064FF0000736
:100530004FF000084FF0000B21F00701AC46ACE88B
:10054000C009ACE8C009ACE8C009ACE8C0098D46F8
:10055000704710B50446AFF300802046BDE8104058
:10056000FFF77DBE01491820ABBEFEE72600020062
:1005700070470000064804A140F8131F05A1C160A0
:1005800005A18161704700006779726F000000006B
:100590007C4B0020616363006D6167003522024976
:1005A0000248FFF726BF000000001E087C4B002019
:1005B0003521014800F002B87C4B00202DE9F041C4
:1005C000124C06460D46204600F0B6FA074601F0EA
:1005D0007DF90F4800210160022101610121C0E97C
:1005E00002710C4901F0DCF840B1FEE700233278DB
:1005F0002146184601F02CF9641C761C6D1EF5D2BC
:1006000001F01CF90020BDE8F081000000001E0888
:100610006445002000010020FEE70000014800F0D2
:10062000E3BB000074010020014800F0DDBB0000C6
:1006300074010020014800F0D7BB0000B401002085
:10064000014800F0D1BB0000B401002010B54FF408
:10065000D872036802EB01129B5813F00404436B39
:100660009C600468436BA45854D0E4085C60036841
:100670009A58436B02F00202DA604FF4DA720368B0
:1006800002EB01129B58446B03F00F0323610368D4
:100690009A58436BC2F30722DA614FF4DC720368A5
:1006A00002EB01129B58446B237503689B58446B03
:1006B0001B0A637503689B58446B1B0CA375036886
:1006C0009A58436B120EDA754FF4DE72036802EB30
:1006D00001129B58446B237603689B58446B1B0A9A
:1006E000637603689B58446B1B0CA37603689A5887
:1006F000436B120EDA762022002901680DD00A61C0
:1007000001684A6922F010024A6190F838102229E3
:1007100009D021E0640D1C60A9E7CA6001684A693C
:1007200022F00202F0E701684A6922F480724A610D
:1007300001684A6922F400724A6101684A6922F438
:1007400080624A6101684A6922F400624A61016874
:100750004A6922F400424A6190F83810322907D0E1
:100760005FF0010180F8381000F056FD002010BD48
:100770001221F7E710B501684A6922F001024A61C7
:1007800090F83810122918D101684A6922F4807251
:100790004A6101684A6922F400724A6101684A6943
:1007A00022F480624A6101684A6922F400624A6167
:1007B00001684A6922F400424A6190F838103229EF
:1007C00006D0012180F8381000F06CFE002010BD2A
:1007D0002221F7E7014800F079BE00000C04002058
:1007E000014800F073BE0000AC030020014800F097
:1007F0006DBE00006C040020014800F067BE0000E0
:100800004C03002001681823CAB2103AB2FBF3F27D
:10081000054B6FF30901032A9B5CC36500D9091DD1
:1008200081650846704700003C6E000810B501461F
:1008300000208B698A6A4FF0C07453B1B3F5005F32
:1008400015D072B1012A0CD0022A0AD0032A09D18C
:1008500004E01AB1012A06D0022A03D1C96AC901EB
:1008600000D5012010BDC96AA142FAD010BD002AEE
:10087000F7D0012AF2D0022AF3D0032AF3D010BD18
:1008800030B50468256825F4802525600468636018
:100890008368402B036803D099600068C26030BD54
:1008A0009A600068C16030BD7047000010B505F067
:1008B00057FE064C2168884207D105F065FEA16805
:1008C000401AE06021690844206110BD7C000020CE
:1008D000FEE70000002229B1012922D0022923D0FD
:1008E0004FF440720B2800D9001D11490B6823F406
:1008F00040730B600B6813430B600A6822F0F80228
:100900000A600A68F82393FAA3F3B3FA83F39840D2
:1009100040F0020002430A60086840F4803008603A
:1009200070474FF48072DDE74FF40072DAE70000A1
:10093000103C02401348016889050FD5016821F475
:1009400000710160016841F400610160016821F4F7
:1009500000610160016841F40071016001684905AE
:100960000FD5016821F480610160016841F4805174
:100970000160016821F480510160016841F48061E7
:1009800001607047003C02400E4A136823F4407334
:10099000136003290DD0012911680FD041F40041E3
:1009A000116011684FF4803343EA00200143116065
:1009B0007047116848F204031943F1E741F004015C
:1009C000EEE70000103C0240064A136823F440732F
:1009D000136013681360136843F001031360017020
:1009E00070470000103C0240084910B50C6824F420
:1009F00040740C600C6844F440740C600C6844F063
:100A000001040C600260436010BD0000103C024015
:100A1000074A136823F440731360136843F4807328
:100A20001360136843F001031360018070470000F6
:100A3000103C0240074A136823F4407313601368A4
:100A400043F400731360136843F001031360016003
:100A500070470000103C02401F490868C043C206AE
:100A60001E4805D4C26942F01002C26110220A6019
:100A70000A68D243920605D4C26942F00802C261F4
:100A800020220A600A68D243520605D4C26942F0A5
:100A90000402C26140220A600A68D243120605D4E9
:100AA000C26942F00202C26180220A600A68D2432F
:100AB000D20506D4C26942F00102C2614FF48072CD
:100AC0000A600A68D243920705D4C26942F0200244
:100AD000C2610220086070470C3C024000440020C4
:100AE00070B5134904460020C86100F0EFFF0646C8
:100AF000104D09E0601C07D024B100F0E7FF801B17
:100B0000A04201D9032070BD2868C043C003F1D5BD
:100B10002868C00701D00120286029684FF4F970C7
:100B2000884301D0002070BDFFF796FF012070BD03
:100B3000004400200C3C024010B50021A0F10063ED
:100B40004FF48042934204D345490144914201D27B
:100B5000012182E043490144914201D202217CE01B
:100B600041490144914201D2032176E03F494FF4CB
:100B700080330144994201D204216EE03C4944187B
:100B80004FF400318C4201D2052166E0394C044417
:100B90008C4201D2062160E0374C04448C4201D2E1
:100BA00007215AE0354C04448C4201D2082154E01C
:100BB000334C04448C4201D209214EE0314C0444B0
:100BC0008C4201D20A2148E02F4C04448C4201D2CD
:100BD0000B2142E0A0F10164944201D20C213CE0DF
:100BE0002A4C0444944201D20D2136E0284C04449E
:100BF000944201D20E2130E0264C0444944201D2AA
:100C00000F212AE0244A02449A4201D2102124E012
:100C1000224A02448A4201D211211EE0204A0244A3
:100C20008A4201D2122118E01E4A02448A4201D2AD
:100C3000132112E01C4A02448A4201D214210CE022
:100C40001A4A02448A4201D2152106E0184A104489
:100C5000884201D2162100E01721084610BD00008D
:100C600000C0FFF70080FFF70040FFF70000FFF72C
:100C70000000FEF70000FCF70000FAF70000F8F7AC
:100C80000000F6F70000F4F70000F2F700C0EFF7FD
:100C90000080EFF70040EFF70000EFF70000EEF7FD
:100CA0000000ECF70000EAF70000E8F70000E6F7C4
:100CB0000000E4F710B558B1084C491E0BD310F8EA
:100CC000013B5340DBB234F8133083EA1222F4E7DD
:100CD0004FF6FF7010BD104610BD0000586F0008A1
:100CE00010B5064C04E000BF10F8013B5340E25C35
:100CF000491E89B2F8D2104610BD0000586E000897
:100D0000F0B50A7D01209040344A136843F0010396
:100D10001360136823F47C53136013684C6A43EA2E
:100D2000042313602D4B1C331C6884431C602B4D23
:100D30002B4CCE690C35A6B92E6886432E608F8960
:100D40004E6867F31F464F6904EBC707C7F8406654
:100D50000F890E6867F31F464F6904EBC707C7F892
:100D60004466CE69012E14D12E6806432E600E888B
:100D70004D6866F31F454E6904EBC606C6F840563B
:100D80000E89CD6866F31F454E6904EBC604C4F8AE
:100D90004456124C8D69241D002D256806D005434C
:100DA00025600E4C0D69143415B104E08543F7E756
:100DB0002568854325600D69012D02D1256805430D
:100DC0002560096A012902D1196801431960106878
:100DD00020F0010010600020F0BD0000006600401F
:100DE000006000407047000010B50446006841698B
:100DF000C943C90714D182685849914368D000217A
:100E00008368574A9A4365D00022836855489843BF
:100E100062D000201143014302D02046FFF7AAFC14
:100E20002068C168406911F0030FC0F3400004D08E
:100E300018B100212046FFF709FC216808694969BB
:100E400010F0030FC1F3001104D019B101212046A5
:100E5000FFF7FCFB20688169426911F0010FC2F3C2
:100E600000234269C2F3C03205D023B11AB1E16B4D
:100E700041F00101E1638169C1F3400341694269C5
:100E8000C1F34021C2F3C0322BB121B11AB1E16BE1
:100E900041F00201E16381694269C1F38001C2F35B
:100EA00080234269C2F3C03229B123B11AB1E16B88
:100EB00041F00401E163816911F0700F0ED000214F
:100EC00042694369C2F3C022C3F3C03341B127E092
:100ED000012195E7012298E701209BE70121EFE737
:100EE000F2B1EBB1816901F07001402929D006DC33
:100EF000102909D020290BD030290DD11DE050290F
:100F000023D0602908D124E0E16B41F0080102E020
:100F1000E16B41F01001E163816921F070018161B1
:100F2000E06B002808D0216804204860012084F884
:100F300038002046FFF756FF10BDE16B41F020015D
:100F4000E9E7E16B41F04001E5E7E16B41F0800149
:100F5000E1E7E16B41F48071DDE70000030000048C
:100F600000030008000003102DE9F041040004D044
:100F700094F83800002518B107E00120BDE8F081A1
:100F800084F83950204600F093F8022084F83800A5
:100F90002068016821F0020101602068016841F0C9
:100FA0000101016000F092FD0746032605E000BF45
:100FB00000F08CFDC01B0A2863D820684068C00779
:100FC000F6D020684168C90768D0A1690129016885
:100FD0003FD021F080010160E069012820680168AC
:100FE0003AD021F040010160206A012820680168A0
:100FF00035D021F020010160606A01282068016875
:1010000030D021F010010160A06A01282068016839
:101010002BD021F008010160E06A012820680168F6
:1010200026D021F004010160D4E902010843D4E98B
:101030000412114308436168491E08432168C861CE
:101040002068016821F00101016000F03FFD0746C2
:101050001CE041F08001BEE741F04001C3E741F0F0
:101060002001C8E741F01001CDE741F00801D2E7C7
:1010700041F00401D7E700BF00F028FDC01B0A289B
:1010800004D904F8386F0320657077E7206840685A
:10109000C007F1D120684068C00703D0042084F85D
:1010A00038006AE7E563012084F83800002065E72E
:1010B000F0B5324B0768DFF8C0C01868032202247D
:1010C00009252F490026401C87B0674521D11860AB
:1010D000012807D1086840F000700860086800F037
:1010E000007005908DE85400CDE903256946254838
:1010F00000F000FC00220521132000F081FD1320E8
:1011000000F072FD00220521142000F079FD14206A
:101110002EE0DFF874C067452CD10F6847F0806778
:101120000F600F68012807F080670597186007D1E6
:10113000086840F000700860086800F000700590D2
:101140004FF440508DE85100CDE9032569460F4822
:1011500000F0D0FB002211463F2000F051FD3F205F
:1011600000F042FD00221146402000F049FD4020E1
:1011700000F03AFD07B0F0BD00640040040000201C
:1011800040380240000C0240006800400004024069
:1011900010B590F83820012A01D0122A39D190F8E0
:1011A0003920012A35D0012280F8392090F83820E2
:1011B000122A29D05FF0220280F838200022C26370
:1011C00003685C6944F480745C6103685C6944F49E
:1011D00000745C6103685C6944F480645C6103686A
:1011E0005C6944F400645C6103685C6944F4004435
:1011F0005C6180F8392000680029416906D041F01F
:1012000010014161002010BD3222D5E741F00201FA
:10121000F7E7022010BD000070B5426B014640F2B6
:1012200005251068344CA0F20523A84237D00ADC0B
:10123000A0F50072013A0ED0012A0CD0022A0AD081
:10124000032A1FD107E0012B2ED0022B32D0B3F599
:10125000FE7F17D13DE0401EC0B22070C0EBC0023F
:10126000264800EB82004269531C4361322A02D8AF
:1012700003F01EFA01E003F0EBF9207810F1020010
:1012800003F0C2F91E480068416941F00201416162
:101290001C480068416941F00201416170BD1A4873
:1012A00003F0D6F90920EBE717481C3803F0D0F912
:1012B0000A20E5E7144A1C325069401C50610A2894
:1012C000104602D803F0F4F901E003F0C1F90B2055
:1012D000D6E75069D17D00BA20F0FF00084300EE48
:1012E000100ADFED0A0A0120B8EEC00A20EE200A3B
:1012F00084ED010AC4E70000F8000020204400202B
:1013000074010020B40100202C4500200AD723BC22
:101310002DE9F05F0E46016804468868400105D457
:101320008868000102D48868C00067D594F8390045
:1013300001280ED0012784F8397094F8380022284B
:101340000AD0122084F838008868400106D50025AC
:101350000AE00220BDE8F09F3220F3E78868000130
:1013600001D5012500E002254FF4C07000EB051007
:101370000A5802F001020A50216B8A68EAB3D4F8D5
:1013800000C05CF800301343CA68496842EAC101F2
:101390000B434CF80030216B0A7C02F00F020A610B
:1013A0004FF4C271226801EB0511535823F00F036B
:1013B000535022685358D4F830C0DCF810C043EAC8
:1013C0000C035350216B4FF4C47303EB05130A7DD8
:1013D000D1F8151042EA01212268D150216B4FF457
:1013E000C67303EB05130A7ED1F8191042EA0121F6
:1013F0002268D15021680A5801E00DE046E042F031
:1014000001020A5000F062FB81464FF00008DFF84D
:1014100088A0DFF888B019E022681358D1F80CC012
:10142000098843EA0C0343EA41511150B3E7701CA9
:101430000CD02EB100F04AFBA0EB0900B04205D958
:10144000032084F8380084F8398083E795B1206858
:10145000012D816813D0124888430028E7D194F801
:10146000380032280ED084F8387000BF84F83980F4
:1014700000206FE7206881682AEA0100EDE72BEA87
:101480000100EAE7222084F83800EFE7042084F81E
:10149000380001205EE7000003000004000300089C
:1014A00000000310704790F83510022903D0802106
:1014B000416501207047052180F8351000680168FA
:1014C00021F0010101600020704700002DE9F84380
:1014D00004464FF00008CDF8008064484FF41651E0
:1014E000A56D0068B0FBF1F72E6894F85C10082039
:1014F00000FA01F131420FD021680A6852070BD57A
:101500000A6822F004020A6094F85C108840A8601F
:10151000606D40F00100606594F85C1054488840AC
:10152000304208D021684969090604D5A860606D79
:1015300040F0020060654E4894F85C10C01C884082
:10154000304208D021680968890704D5A860606D19
:1015500040F00400606594F85C1010208840304230
:1015600018D021680968090714D5A86020680168A7
:10157000490304D50068000308D5A16C07E00168A1
:10158000C90503D4016821F008010160216C09B18B
:101590002046884794F85C102020884030424FF065
:1015A000010631D021680968C9062DD5A86094F8D4
:1015B000350005282068016806D0490347D5006832
:1015C00000031DD4616C1CE021F01601016020684D
:1015D000416921F080014161206C08B9A06C20B103
:1015E0002068016821F00801016094F85C103F2038
:1015F0008840A86084F8348084F83560216D1FE04D
:10160000E16B09B120468847606D00282BD0606DE2
:10161000C00714D0052084F835002068016821F047
:10162000010101600098401C0090B84203D8206876
:101630000068C007F6D184F8348084F83560E16C26
:10164000002910D001B02046BDE8F04308470168EA
:10165000C905D5D4016821F01001016084F83480F7
:1016600084F83560CCE7BDE8F883000094000020E2
:10167000010080002DE9F041044600F027FA0646FB
:101680005CB1002584F83450022084F835002068CD
:10169000016821F0010101600DE00120BDE8F08149
:1016A00000F014FA801B052805D92020606503206E
:1016B00084F83500F2E720680068C007F0D122689E
:1016C00011681F480140D4E901031843D4E90336E7
:1016D0003343184363691843A3691843E369184304
:1016E000236A18430843616A042903D1D4E90B1320
:1016F00019430843106020684069666A20F00701BA
:1017000030460E43012704280AD1A06A064320462A
:10171000FFF78CF820B14020606584F83570BCE795
:10172000206846612046FFF76DF894F85C203F2161
:1017300091408160656584F835700020AEE7000057
:101740003F8010F070B5044690F834000025012861
:101750000CD0012084F8340094F835600020012E6C
:1017600006D084F834000225284670BD022070BDE2
:10177000022684F8356060652046FFF781F820680E
:10178000016841F001010160EEE731B500F09EF91A
:10179000044600F09BF90099001B8842F9D338BD3C
:1017A0002DE9F047044623480F46017E01290AD05F
:1017B0000121804601764CF250394846FFF790F9F6
:1017C000020003D030E00220BDE8F0874FF0FF3088
:1017D00038602068184D012801D0A6681DE0207CE3
:1017E0006168FFF7D1F84846FFF77AF902462868A2
:1017F00048F204018843286014E0217C3046FFF75A
:1018000069F84846FFF76CF90200286820F0FA00F2
:10181000286001D03E6005E0761CD4E9021008443F
:10182000B042EAD8FFF786F8002188F81810104671
:10183000CAE7000000440020103C02400348016851
:1018400041F000410160002070470000103C024060
:101850002DE9F0471B4E05461446307E1F4689464B
:10186000012808D0012030764CF250384046FFF76E
:1018700037F918B114E00220BDE8F0879DB1012DC1
:1018800016D0022D19D022463B464846FFF7ACF849
:101890004046FFF725F90C490A6822F001020A6068
:1018A00000213176E8E7E1B24846FFF78DF8EFE72F
:1018B000A1B24846FFF7ACF8EAE721464846FFF7F1
:1018C000B9F8E5E700440020103C024006480068F3
:1018D000002807DA044805490C3801600449016012
:1018E0000020704701207047103C024023016745EB
:1018F000AB89EFCD2DE9F84FDFF890B100224FF022
:1019000001084FF0030A4FF00F090BF1040E00BF5E
:101910000B6808FA02F42340A3426ED14D68022DF1
:1019200001D0122D0ED1D50800EB850CDCF820502B
:101930005607F70E09FA07F6B5430E69BE402E4367
:10194000CCF82060066855000F790AFA05FC07F00C
:10195000030726EA0C06AF40374307604E68012EA6
:1019600005D0022E03D0112E01D0122E0ED1876881
:10197000CE6827EA0C07AE403E4386604668A64321
:101980000C79C4F30014944034434460C4688E68F6
:1019900024EA0C04AE402643C6604C68E4006FD5D0
:1019A0003B4C256845F480452560246822F00305FA
:1019B00004F480440094374C2E19D6F80848950753
:1019C0002F0F09FA07F5AC43334DA84201D100258A
:1019D0002EE0324DA84201D1012529E0304DA84228
:1019E00001D1022524E02F4DA84201D103251FE09B
:1019F0002D4DA84202D104251AE041E02B4DA8420A
:101A000001D1052514E02A4DA84201D106250FE099
:101A1000284DA84201D107250AE0274DA84201D14F
:101A2000082505E0254DA84201D1092500E00A2539
:101A3000BD402543C6F80858DBF800405D464E68B7
:101A40009C43F60300D51C432C60DEF8004075462D
:101A50004E689C43B60300D51C432C600B4D0835E3
:101A60002C684E689C43F60200D51C432C60074D41
:101A70000C352C684E689C43B60200D51C432C6084
:101A8000521C102AFFF444AFBDE8F88F003C01401F
:101A9000443802400030014000000240000402408F
:101AA00000080240000C02400010024000140240F6
:101AB00000180240001C02400020024000240240A6
:101AC0000AB1816170470904FBE700000148006822
:101AD00070470000F400002002480168491C0160C2
:101AE00070470000F40000200B4810B5016841F475
:101AF00000710160016841F480610160016841F496
:101B000080710160032000F09BF8002000F006F8CF
:101B100000F03EF8002010BD003C024010B5014628
:101B200088B00022362000F06BF8362000F05CF818
:101B300013480024016841F010010160006805A904
:101B400000F010000690684600F090F900F0B4F93B
:101B50000C494000B0FBF1F10C480B4A491E0260F1
:101B600040F2E732C0E90324C0E9011400F03DFD72
:101B700010B1012008B010BD044800F052FDF9E793
:101B80004038024040420F00001000403801002061
:101B900010B5032000F054F8002211466FF00B003E
:101BA00000F02EF8002211466FF00A0000F028F82D
:101BB000002211466FF0090000F022F800221146C1
:101BC000501F00F01DF800221146101F00F018F8F9
:101BD00000220F21901E00F013F800220F21BDE813
:101BE0001040501E00F00CB800F01F02012191407F
:101BF0004009800000F1E020C0F8001170470000AB
:101C0000F0B40E4B1B680C46C3F30223C3F1070567
:101C1000042D00D90425191D072901D2002300E055
:101C2000DB1E012606FA05F1491E214099409E401F
:101C3000761E16403143F0BC01F0E5BC0CED00E02F
:101C4000064900F0070208684FF6FF03184040EA13
:101C50000220034A10430860704700000CED00E0CA
:101C60000000FA052DE9F8431E48016841F0805153
:101C700001600068012600F080500090300490FA66
:101C8000A0F0194FB0FA80F047F82060FFF71EFF70
:101C900005464FF47A78154C05E000BFFFF716FFB4
:101CA000401B404515D86068C003F7D54FF400309D
:101CB00090FAA0F0B0FA80F047F82060FFF706FF36
:101CC0000546464608E000BFFFF700FF401BB04254
:101CD00002D90320BDE8F88360688003F4D50020B2
:101CE000F8E700004038024000000E42007000405B
:101CF0002DE9F047DFF8649105460F46D9F800005A
:101D000000F00F01F8B28046B94208D2014689F8C6
:101D10000010D9F8000000F00F00B84274D1287804
:101D20004F4C800705D52068A96820F0F0000843D3
:101D300020602878C00759D04949686808390128C7
:101D40001AD002281BD0032819D009688907002956
:101D50005ADA216821F0030101432160FFF7B6FE42
:101D60006968064641F28830012911D002291DD048
:101D70000329824627D035E009688903E7E7096827
:101D80008901E4E7FFF7A2FE811B514501D926E056
:101D900082462068C0F381000128F3D126E000BF0D
:101DA000FFF794FE811B514501D918E08246206857
:101DB000C0F381000228F3D118E000BFFFF786FED0
:101DC000811B51450BD82068C0F381000328F5D151
:101DD0000CE000BFFFF77AFE811B514502D90320BA
:101DE000BDE8F087206810F00C0FF3D1D9F800108F
:101DF000484601F00F01B94208D980F80080006818
:101E000000F00F00B84201D00120E9E72878400730
:101E100005D52068E96820F4E05008432060287860
:101E2000000706D52068296920F4604040EAC10017
:101E3000206000F071F82168F02292FAA2F201F01D
:101E4000F001B2FA82F2D140064A515CC84006491C
:101E500008600020FFF762FE0020C1E7003C02405E
:101E6000083802402C6E0008940000200F22026007
:101E70000C4A136803F003034360136803F0F00394
:101E80008360136803F4E053C36012684FF4E053B7
:101E900003EAD20202610448006800F00F00086003
:101EA0007047000008380240003C024001480068CA
:101EB000704700009400002008480949006809683C
:101EC0004FF4E05292FAA2F201F4E051B2FA82F237
:101ED000D140044A515CC840704700009400002083
:101EE000083802402C6E0008084809490068096853
:101EF0004FF4604292FAA2F201F46041B2FA82F227
:101F0000D140044A515CC840704700009400002052
:101F1000083802402C6E000830B51948006810F0EF
:101F20000C01184812D0184C04290ED008290DD1E4
:101F30001349091F0A6802F03F030A68550247F671
:101F4000C07204D5B4FBF3F003E0204630BDB0FB13
:101F5000F3F00B680968134092FAA2F2B2FA82F227
:101F6000D34058434FF4403292FAA2F201F4403188
:101F7000B2FA82F2D140491C4900B0FBF1F030BD09
:101F8000083802400024F400001BB7002DE9F84F88
:101F90000446DFF8CC820078A8F1040BC007ABF14F
:101FA000040537D0D8F800104046C1F3810101295B
:101FB00008D00068C0F3810002280AD1DBF80000D5
:101FC000400206D52868800324D56068002878D0B0
:101FD00020E0A3492079891F0870606868B1FFF785
:101FE00075FD064605E000BFFFF770FD801B642805
:101FF00068D828688003F7D50CE0FFF767FD064630
:1020000005E000BFFFF762FD801B6428F0D8286858
:102010008003F7D42078934E80074FF0010A4FF0E9
:10202000000742D5D8F80010404611F00C0F08D038
:102030000068C0F3810002280AD1DBF800004002EA
:1020400006D42868800714D5E068012839D110E04B
:10205000E068D8B1C6F800A0FFF738FD814605E07A
:10206000FFF734FDA0EB09000228C1D828688007DB
:10207000F6D52868F82292FAA2F22169B2FA82F221
:1020800020F0F8009140084328600EE03760FFF729
:102090001DFD814606E000BFFFF718FDA0EB09001B
:1020A00002280FD828688007F6D42078000728D5A2
:1020B0006D486169A1B1C0F800A0FFF707FD814636
:1020C00008E0CAE079E000BFFFF700FDA0EB0900DF
:1020D000022872D862486C3000688007F4D510E09E
:1020E0000760FFF7F3FC814606E000BFFFF7EEFC58
:1020F000A0EB0900022860D859486C3000688007BE
:10210000F4D42078400749D555483830016841F06B
:1021100080510160006800F08050009053480168D1
:1021200041F480710160FFF7D1FC814606E000BFF9
:10213000FFF7CCFCA0EB090002283ED84B48006812
:10214000C005F5D5DFF81891207A09F1680989F8FA
:102150000000A06888B1FFF7B9FC009008E000BF5C
:10216000FFF7B4FC0099411A41F2883081426CD8E3
:10217000D9F800008007F3D510E0FFF7A7FC009026
:1021800008E000BFFFF7A2FC0099411A41F2883035
:1021900081425AD8D9F800008007F3D4A069E0B38F
:1021A000D8F80010C1F38101022956D00228376601
:1021B00004D0FFF78BFC04464AE046E0FFF786FCBC
:1021C000074604E0FFF782FCC01B02283DD82868C0
:1021D0008001F7D4D4E90701084347F6C07292FAA8
:1021E000A2F2616AB2FA82F29140A26A4FF0FF3322
:1021F00003EB52024FF4403393FAA3F3B3FA83F3A1
:102200009A40114308434FF0706292FAA2F2E16AD9
:10221000B2FA82F29140084300E01CE0CBF80000E3
:10222000C6F860A0FFF752FC044604E0FFF74EFC3E
:10223000001B022809D828688001F7D50BE000BFF1
:10224000FFF744FC001B022802D90320BDE8F88FE9
:1022500028688001F4D40020F8E70120F6E70000A8
:102260000838024000004742800E4742007000409C
:1022700070B5040005D00025A56294F8510010B196
:1022800006E0012070BD84F85050204600F030F880
:10229000022084F851002068016821F040010160AB
:1022A000D4E901010843D4E90312114308436169E9
:1022B0000843218B01F400710843E1690843216A56
:1022C0000843A16A084321680860A069042101EA63
:1022D0001040616A0843216848602068C16921F4A0
:1022E0000061C1616565012084F85100002070BD66
:1022F00000B500680E4987B0884217D10D4800210B
:10230000026842F480120260006800F480100590B8
:102310004FF4607000900220CDE90101032003908A
:102320000520049069460448FFF7E4FA07B000BDB1
:102330000050014044380240001402402DE9F84F9B
:10234000044690F8500000260A9F9A4693460D4690
:102350004FF0010801280ED0012084F85000FFF74B
:10236000B5FB814694F85100616801280CD0B1F5A5
:10237000827F07D102E00220BDE8F88FA16809B989
:10238000042801D00226BDE055B1BBF1000F07D0F3
:10239000BAF1000F04D094F85100012802D004E0F3
:1023A0000126AFE0052084F8510000206065C4F8E4
:1023B00038B0A4F83EA0A4F83CA02563A4F836A049
:1023C000A4F834A02064606420680168490603D43E
:1023D000016841F040010160E068B0F5006F60689D
:1023E00004D0E8B3E08E01283BD06AE010B1E08E63
:1023F00001282ED1216835F8020BC860E08E401EFE
:10240000E08626E0B8F1000F0DD0E08E58B12068CC
:102410008168890707D535F8021BC160E08E401E30
:10242000E0864FF00008E08F58B120688168C90746
:1024300007D0C0682BF8020BE08F401EE0874FF0FA
:102440000108781C05D0FFF741FBA0EB0900B8425A
:1024500046D2E08E0028D5D1E08F0028D2D136E0D8
:10246000FFE7216815F8010B0873E08E401EE08637
:1024700027E000BFB8F1000F0DD0E08E58B1206802
:102480008168890707D515F8011B0173E08E401E8E
:10249000E0864FF00008E08F58B120688168C907D6
:1024A00007D0C0680BF8010BE08F401EE0874FF0AB
:1024B0000108781C05D0FFF709FBA0EB0900B84222
:1024C0000ED2E08E0028D5D1E08F0028D2D13B4635
:1024D000012202212046CDF8009001F0C1F808B198
:1024E00003260FE04A463946204601F0A9F818B104
:1024F00001262020606505E0A06818B92068C16841
:1025000080680090012084F85100002084F8500079
:10251000304631E74FF0E0210428086903D020F06D
:1025200004000861704740F00400FAE710B5401E4F
:10253000B0F1807F01D3012010BD4FF0E024606135
:102540000F21601701F05FF80020A06107202061D3
:10255000002010BD7047704730B590F83820012A30
:1025600019D0012200F8382F02234370D1E900343A
:102570002343D1E902452C4323430C6923434C698F
:10258000896923430B4350F8381C4B644270002187
:102590000170084630BD022030BD30B590F83820BB
:1025A000012A20D0012280F83820022380F8393017
:1025B00003685C6824F070045C6003685C680D6804
:1025C0002C435C6003689C6824F080049C60036872
:1025D0009C6849680C439C6080F83920002180F891
:1025E0003810084630BD022030BD10B5040003D0BD
:1025F00094F8390010B107E0012010BD002084F8E4
:102600003800204600F00CF8022084F83900211D23
:10261000206801F00BF9012084F83900002010BD7A
:1026200070470168CA6842F00102CA600068016828
:1026300041F00101016000207047704770B5044609
:10264000006801694FF00005C943890715D4C168C6
:10265000C943890711D4E91E016101202076206851
:1026600080698007204602D0FFF7E7FF04E000F012
:102670001DF9204600F0ECF9257620680169C94370
:10268000490717D4C168C943490713D46FF004013F
:102690000161022020762068806910F4407F204686
:1026A00002D0FFF7CAFF04E000F000F9204600F076
:1026B000CFF9257620680169C943090716D4C16896
:1026C000C943090712D46FF0080101610420207684
:1026D0002068C0698007204602D0FFF7AEFF04E003
:1026E00000F0E4F8204600F0B3F92576206801698F
:1026F000C943C90617D4C168C943C90613D46FF0CA
:1027000010010161082020762068C06910F4407F24
:10271000204602D0FFF791FF04E000F0C7F8204602
:1027200000F096F9257620680169C943C90708D1E8
:10273000C168C943C90704D1891E0161204600F060
:10274000A5F920680169C943090609D4C168C943CC
:10275000090605D46FF0800101612046FFF7FAFEFB
:1027600020680169C943490609D4C168C9434906BB
:1027700005D46FF040010161204600F091F9206816
:102780000169C94389060BD4C168C943890607D4C6
:102790006FF0200101612046BDE87040FFF7DBBE0D
:1027A00070BD0000F0B501680024022501263548FF
:1027B00085B0B1F1804F08D0334A91421CD130210D
:1027C0000091CDE9015469463FE040F6084100918F
:1027D000CDE90154CDE903466946FFF78BF84FF484
:1027E00000400090CDE90154CDE9034669462748F1
:1027F000FFF780F805B0F0BD254A914211D14FF4A2
:1028000040710091CDE901546946CDE90345FFF7D8
:1028100071F84FF440500090CDE9015469461D48CD
:1028200013E01D4A1D481E4F914211D10096CDE97B
:1028300001546946CDE90345FFF75CF84FF4E050D9
:102840000090CDE9015469463846CDE90345CFE70C
:10285000144A914208D1E4210091CDE901540321A9
:10286000CDE903416946C3E70F488142C2D14FF425
:1028700010700090CDE901540920CDE9034069466C
:102880003846B5E700040240000400400000024062
:1028900000080040000C0240000C004000200240F4
:1028A000001C02400004014000180040704770B551
:1028B000044690F838000D4601280DD0012684F812
:1028C0003860022084F8390042B1042A18D0082A5E
:1028D0002AD00C2A4DD139E0022070BD206801F0C9
:1028E00011F82068816941F00801816120688169DF
:1028F00021F004018161206881692A69114311E096
:10290000206801F02BF82068816941F40061816141
:102910002068816921F480618161206881692A6968
:1029200041EA0221816124E0206801F049F8206831
:10293000C16941F00801C1612068C16921F0040149
:10294000C1612068C1692A69114311E0206801F062
:1029500067F82068C16941F40061C1612068C169FC
:1029600021F48061C1612068C1692A6941EA0221BC
:10297000C16184F83960002084F8380070BD10B55A
:10298000040003D094F8390010B107E0012010BD15
:10299000002084F83800204600F00CF8022084F86B
:1029A0003900211D206800F041FF012084F8390022
:1029B000002010BD08B501681F48B1F1804F0BD051
:1029C0001E4A914210D1016841F002010160006885
:1029D00000F00200009008BD016841F001010160B3
:1029E000006800F00100F5E7154A914207D101683F
:1029F00041F004010160006800F00400EAE7114AB8
:102A0000914207D1016841F008010160006800F0BF
:102A10000800DFE70C4A914202D10748001DD2E7C7
:102A20000A4A9142D7D1016841F040010160006833
:102A300000F04000CEE700004038024000040040B3
:102A400000080040000C0040000401400018004055
:102A50007047000010B504460068012200F046FFF0
:102A600008492068884202D00749884203D1416C56
:102A700041F4004141642068016841F001010160B6
:102A8000002010BD0000014000040140006803491F
:102A9000884201D1FFF720B87047000000100040C5
:102AA0007047704770B5026804461068D168536972
:102AB00010F00F0F51D003F0010501F4907635436B
:102AC0005DD0C20705D0CA0503D5E26B42F0010212
:102AD000E263420705D5DA0703D0E26B42F0020257
:102AE000E263820705D5DA0703D0E26B42F0040205
:102AF000E263020705D5DA0703D0E26B42F0080271
:102B0000E263E26B002A34D0800604D5880602D541
:102B1000204600F0EAFF20684069E16BC0F38010B6
:102B200001F008010143204624D000F0A9FF2068ED
:102B3000416949061AD5416921F040014161606B44
:102B4000A0B11B490165606BFEF7ADFC002810D0F9
:102B5000606B016DBDE87040084783060FD58B069A
:102B60000DD52046BDE8704000F0BFBF2046FFF7FE
:102B700098FF70BDFFF795FF0020E06370BD03066E
:102B800006D50B0604D52046BDE8704001F04AB9D1
:102B90004006F3D54806F1D5D168204621F0400122
:102BA000D160202184F8391000F065F970BD000073
:102BB000713A000870B5040004D094F8390000257B
:102BC00010B106E0012070BD84F83850204600F0B6
:102BD00023F8242084F839002068C16821F40051CA
:102BE000C160204600F0C8FF2068016921F49041CF
:102BF00001612068416921F02A0141612068C168B2
:102C000041F40051C160E563202084F8390084F864
:102C10003A00002070BD00002DE9F04F0546D0F8C5
:102C200000C00220DFF81C820024DFF81CA2012172
:102C3000032207238706460287B0C4453BD1DAF852
:102C4000008048F01008CAF80080DAF800C00DF1E2
:102C500004080CF0100CCDF814C04FF0C00CCDF8E7
:102C600000C088E80F0069467848FEF743FEDFF8A9
:102C7000E48177494046C8F80010C0E90174C0E912
:102C80000346C8F81440C8F81840C8F81C40C8F8F3
:102C90002040C8F82440FEF7EDFC08B1FDF718FE0F
:102CA000C5F83480002205212520C8F83850FEF7E9
:102CB000A7FF252046E0DFF8A081DFF88C91DFF840
:102CC0009CB1A9F10409C44541D1D9F8008048F468
:102CD0000038C9F80080D9F800C00DF104080CF4E0
:102CE000003CCDF814C04FF0600CCDF800C088E86F
:102CF0000F0069465846FEF7FDFDDFF85881584938
:102D000008F160084046C8F80010C0E90174C0E945
:102D10000346C8F81440C8F81840C8F81C40C8F862
:102D20002040C8F82440FEF7A5FC08B1FDF7D0FD0F
:102D3000C5F83480002211462620C8F83850FEF726
:102D40005FFF2620FEF750FF07B0BDE8F08FDFF8E9
:102D50001481C4453ED1D9F8008048F48028C9F8D0
:102D60000080D9F800C00DF104080CF4802CCDF8D7
:102D700014C04FF4407CCDF800C088E80F006946CD
:102D80005846FEF7B7FDDFF8CC80354908F1C0089A
:102D900060394046C8F80010C0E90174C0E9034634
:102DA000C8F81440C8F81840C8F81C40C8F82040BB
:102DB000C8F82440FEF75EFC08B1FDF789FDC5F8B0
:102DC0003480002211462720C8F83850FEF718FF3B
:102DD0002720B7E7244B9C45B6D1DAF8007047F0BE
:102DE0002007CAF80070DAF8003001AF03F02003C2
:102DF00005934FF48443009387E80700082004906C
:102E000069461A48FEF776FD1148194F18383860A0
:102E10008005C7E90104C7E903467C61BC61FC6128
:102E20003C6238467C62FEF725FC08B1FDF750FD98
:102E30006F63002205214720BD63FEF7E1FE4720B6
:102E400080E70000001001404438024000040240C6
:102E5000406402404C03002000440040000C02404B
:102E60008860024000480040001401400018024001
:102E70006C04002070477047FEE7C006010E1C205E
:102E800002F0F0BBC006010E1B2002F0EBBB0000FD
:102E90000F4810B50D4901600521416000214FF434
:102EA00000328160C0E903125201C0E9052101220C
:102EB000C0E9072141628162C162FEF755F800282E
:102EC00003D0BDE81040FDF703BD10BD0064004015
:102ED00074010020104810B50E49016005214160C1
:102EE00000214FF04072C0E902124FF4003202613B
:102EF0005201C0E905210122C0E907214162816236
:102F0000C162FEF731F8002803D0BDE81040FDF79C
:102F1000DFBC10BD00680040B4010020194808B5AE
:102F2000016841F480010160016801F480010091B1
:102F3000016841F4001101600068002200F40010F3
:102F4000009005210C20FEF75BFE0C20FEF74CFEE6
:102F5000002205211020FEF753FE1020FEF744FE4C
:102F6000002205213920FEF74BFE3920FEF73CFEFA
:102F7000002205213A20FEF743FEBDE808403A2032
:102F8000FEF732BE3038024000B595B01422154924
:102F90006846FDF72EFA0021684602F0D3FB12497D
:102FA000142208600F4905A81431FDF722FA002108
:102FB00005A802F0C7FB0B49142228310AA8FDF727
:102FC00018FA00210AA802F0BDFB064914223C3180
:102FD0000FA8FDF70EFA00210FA802F0B3FB15B001
:102FE00000BD0000DC6D0008000000202DE9F04766
:102FF0004B4886B00024016841F01001016001686F
:1030000001F010010591016841F0020101600168C1
:1030100001F002010591016841F040010160016881
:1030200001F040010591016841F00801016001686B
:1030300001F008010591016841F00101016001689A
:1030400001F001010591016841F48071016001689E
:1030500001F480710591016841F08001016001680F
:1030600001F080010591016841F0200101600068D4
:10307000DFF8B08000F02000059000228821404653
:10308000FEF71EFD012204214046FEF719FDDFF880
:1030900098904FF40056002231464846FEF710FD46
:1030A000DFF888A044F24007002239465046FEF778
:1030B00007FD8C2000900125CDE90154694640466A
:1030C0000394FEF717FC022000901948CDE9010592
:1030D00069464046FEF70EFC0096CDE9015469466C
:1030E00048460394FEF706FC8020CDE900046946BB
:1030F00010480294FEF7FEFB0097CDE901546946A3
:1031000050460394FEF7F6FB0D2000900A48CDE9E7
:10311000010469460948FEF7EDFB06B0BDE8F087FB
:1031200030380240001002400018024000140240F3
:1031300000002110000C02400000111000000240AD
:10314000104810B50E4901604FF4827141600021B2
:103150008160C1604FF400720161C0E90512302244
:10316000C0E90721416281620A21C162FFF780F84C
:10317000002803D0BDE81040FDF7AABB10BD000039
:1031800000500140F401002010B5174888B01549DF
:10319000016059210024C0E9011440F6C311C0E9BF
:1031A0000314FFF7ECFB08B1FDF792FB60200090E1
:1031B0004FF47A70CDE90104002269460A4804946C
:1031C000FFF775FB08B1FDF783FB0422694606484B
:1031D000FFF76DFB08B1FDF77BFB0348FFF7E2FA51
:1031E00008B010BD00180040F805002010B52148B7
:1031F0008AB04FF080410024C0E900148460C460AC
:103200000461FFF7BCFB08B1FDF762FB079407A957
:1032100018480894FFF7C1F908B1FDF759FB602081
:10322000CDE9000402940022694612480494FFF795
:103230003EFB08B1FDF74CFB042269460D48FFF741
:1032400036FB08B1FDF744FB082269460948FFF741
:103250002EFB08B1FDF73CFB0C2269460548FFF741
:1032600026FB08B1FDF734FB0248FFF79BFA0AB0D2
:1032700010BD0000CC04002010B51A488AB01849CF
:103280000160B3210024C0E90114C4600461FFF7A8
:1032900076FB08B1FDF71CFB079407A911480894B9
:1032A000FFF77BF908B1FDF713FB6020CDE90004BF
:1032B0000294002269460B480494FFF7F8FA08B11B
:1032C000FDF706FB042269460648FFF7F0FA08B14D
:1032D000FDF7FEFA0348FFF765FA0AB010BD0000DB
:1032E000000400400805002010B521488AB01F499D
:1032F0000024C0E900148460C4600461FFF73FFB50
:1033000008B1FDF7E5FA079407A919480894FFF7F3
:1033100044F908B1FDF7DCFA6020CDE9000402941D
:103320000022694612480494FFF7C1FA08B1FDF77C
:10333000CFFA042269460E48FFF7B9FA08B1FDF743
:10334000C7FA082269460A48FFF7B1FA08B1FDF743
:10335000BFFA0C2269460648FFF7A9FA08B1FDF743
:10336000B7FA0348FFF71EFA0AB010BD0008004084
:103370004405002010B524488AB022490160592133
:103380000024C0E9011440F6C311C0E90314FFF79B
:10339000F6FA08B1FDF79CFA079407A91A480894B1
:1033A000FFF7FBF808B1FDF793FA602000904FF4A7
:1033B0007A70CDE901040022694613480494FFF7AE
:1033C00076FA08B1FDF784FA042269460E48FFF741
:1033D0006EFA08B1FDF77CFA082269460A480194A2
:1033E000FFF765FA08B1FDF773FA0C226946064843
:1033F000FFF75DFA08B1FDF76BFA0348FFF7D2F962
:103400000AB010BD000C00408005002010B52B480C
:1034100090B029490024C0E900148460C4600461AC
:103420004461FFF7ACFA08B1FDF752FA0E940EA909
:1034300022480F94FFF7B1F808B1FDF749FA079455
:10344000089409944FF400500A94CDE90B4007A961
:103450001A480D94FFF780F808B1FDF739FA60209B
:10346000CDE9000402940394049405940022694673
:1034700012480694FFF71BFA08B1FDF729FA042257
:1034800069460E48FFF713FA08B1FDF721FA082242
:1034900069460A48FFF70BFA08B1FDF719FA0C2242
:1034A00069460648FFF703FA08B1FDF711FA034829
:1034B000FFF778F910B010BD00040140BC050020F2
:1034C0000D4810B50B4901600C49416000214FF4D3
:1034D00080628160C0E903120C22C0E90521C1614C
:1034E000FFF768FB002803D0BDE81040FDF7F0B9F6
:1034F00010BD0000001001404C020020A086010019
:103500000C4810B50A4901604FF4E13141600021D7
:1035100081600C22C160C0E904128161C161FFF7C2
:1035200049FB002803D0BDE81040FDF7D1B910BD1C
:10353000004400408C0200200C4810B50A4901608C
:103540004FF4E1314160002181600C22C160C0E98B
:1035500004128161C161FFF72DFB002803D0BDE893
:103560001040FDF7B5B910BD00480040CC02002066
:103570000C4810B50A4901604FF4E1314160002167
:1035800081600C22C160C0E904128161C161FFF752
:1035900011FB002803D0BDE81040FDF799B910BD1C
:1035A000001401400C030020FEE7000010B50446A3
:1035B0001048844208D11049A1F1140000F094FC95
:1035C000072001F021F80FE00C48844202D101F0FD
:1035D000F9FC09E00A48844206D107491122413129
:1035E000A1F11100FCF7C0FE2046BDE8104002F03A
:1035F0003DBC00004C0200208C450020CC02002085
:103600000C03002070470907090E002806DA00F0B5
:103610000F0000F1E02080F8141D704700F1E02059
:1036200080F800147047000030B4034C4466034C2B
:10363000846630BC02F0EAB90D5A00081B5A000833
:1036400038B50B46009204460022802100F008F8AD
:10365000002804D0606D40F020006065032038BD74
:103660002DE9F0411D4617460E460446DDF8188048
:1036700035E0681C33D02DB1FEF728FAA0EB080026
:10368000A8422CD32068416821F0E00141606068C5
:10369000B0F5827F0BD1A068B0F5004F02D0B0F535
:1036A000806F04D12068016821F040010160A06AA8
:1036B000B0F5005F0AD1206801684DF6FF72114035
:1036C00001602068016841F400510160012084F824
:1036D0005100002084F850000320BDE8F0812068EC
:1036E000806836EA000004D00020B842C1D1002032
:1036F000F3E70120F9E74FF47A742046FEF745F826
:10370000642002F009F8F8E710B502F029FF044C34
:103710002168884202D102F037FFA06010BD00008E
:103720007C00002002F004B830B5264893B0002594
:10373000016841F080510160006800F080501190F4
:103740002148016841F4404101600068022400F40E
:10375000404011900120009001908005CDE9064085
:1037600006200890B420CDE9090404200B90684697
:10377000FEF70CFC00B1FEE7FEF774FA00B1FEE7BD
:103780000CA90F2081E831004FF4A0500F904FF4A6
:103790008050109005210CA8FEF7AAFA00B1FEE7B0
:1037A000FEF784FB4FF47A71B0FBF1F0FEF7BEFE3A
:1037B0000420FEF7AFFE00220F21501EFEF720FA74
:1037C00013B030BD4038024000700040104801681E
:1037D00041F4700101600F48016841F0010101608E
:1037E0000C4A00210832116002680B4B1A4002603B
:1037F000031D0A4A1A60026822F48022026005480A
:103800000C3001600249580680390860704700009A
:1038100088ED00E000380240FFFFF6FE1030002483
:103820000148FEF70BBF000038010020F0B5026828
:10383000234B244D244E254F254C4FF0804C98426D
:1038400009D0604507D0A84205D0B04203D0B842A5
:1038500001D0A04204D122F0700E4A6842EA0E0262
:1038600098421BD0604519D0A84217D0B04215D05D
:10387000B84213D0A04211D0164DA8420ED0164D1A
:10388000A8420BD0154DA84208D0154DA84205D02E
:10389000144DA84202D0144DA84203D122F4407521
:1038A000CA682A4302608A68C2620A6882629842D1
:1038B00001D0A04201D10969016301214161F0BD3C
:1038C000000001400004004000080040000C0040DF
:1038D0000004014000400140004401400048014014
:1038E00000180040001C00400020004010B50123DB
:1038F000046A8B409C430462036A8A401343036258
:1039000010BD000030B5026A22F001020262026AB4
:10391000436884690D6824F07304254322F002048F
:103920008A6822430B4CA04202D00B4CA0420BD120
:1039300022F00804CA6823F4407322434C6922F041
:1039400004021C438B6923434360856149684163DA
:10395000026230BD000001400004014030B5026A3F
:1039600022F010020262026A436884690D6824F43E
:10397000E64444EA05248D6822F0200242EA05125A
:103980000D4DA84202D00D4DA8420ED1CD6822F0B7
:10399000800242EA05124D6923F4406343EA85033D
:1039A0008D6922F0400243EA8503436084614968DF
:1039B0008163026230BD000000000140000401404C
:1039C00030B5026A22F480720262036A4268C469F6
:1039D00023F4007324F073050C682C438D6843EACC
:1039E00005230D4DA84202D00C4DA8420ED1CD6842
:1039F00023F4006343EA05234D6922F4405242EA6E
:103A000005128D6923F4806342EA05124260C461A5
:103A10004968C163036230BD0000014000040140F9
:103A200030B5026A22F480520262046A4268C369B5
:103A30000D6823F4E64343EA05238D6824F400541B
:103A400044EA0534084DA84202D0084DA84204D1EA
:103A50004D6922F4804242EA85124260C36149689E
:103A60000164046230BD0000000001400004014018
:103A700010B5806B0021C185C184FFF712F810BD1D
:103A80000168CA6822F49072CA6001684A6922F02B
:103A900001024A61202180F83A10704770B504464F
:103AA00090F83A0020281ED1D9B1D2B194F838004C
:103AB000012818D0012084F83800A162A2850025D1
:103AC000E563134626680A46311D606BFDF73AFE32
:103AD0002068416941F04001416184F8385000207C
:103AE00070BD012070BD022070BD10B590F83A1075
:103AF000222901D0022010BD8168B1F5805F11D06C
:103B00000169002901681FD0496801F07F03816ABB
:103B10004A1C82620B70C18D491E0904090CC185C3
:103B200018D026E00269816A002A0268526805D02E
:103B3000D2B20A80816A491C8162ECE7C2F30802B2
:103B40000A80816A891CF7E74A68816A4B1C836294
:103B50000A70E0E70168CA6822F49072CA600168DE
:103B60004A6922F001024A61202180F83A10FFF7E9
:103B700081F9002010BD00002DE9F04104460068E5
:103B8000016921F44052E168114301612168C8686C
:103B900049F20C6290432369A268E5691A4363699C
:103BA0002B431A430243CA602168486920F44072DB
:103BB000A06910434861E1696425B1F5004F974859
:103BC000974A21684FF032083FD0914201D081429C
:103BD0007CD1FEF789F900EBC00101EB00106168B0
:103BE0008900B0FBF1F6FEF77FF900EBC00101EBB5
:103BF000001061688900B0FBF1F0B0FBF5F06FF0E8
:103C00001801484306EB800108EB0110B0FBF5F00A
:103C100000F0F006FEF768F900EBC00101EB0010C0
:103C200061688900B0FBF1F0B0FBF5F006EB00161F
:103C3000FEF75AF900EBC00101EB00106168890042
:103C4000B0FBF1F7FEF750F9D2E0914201D081428A
:103C50003DD1FEF749F900EBC00101EB00106168AE
:103C60004900B0FBF1F0B0FBF5F00601FEF73CF9BE
:103C700000EBC00101EB001061684900B0FBF1F7F7
:103C8000FEF732F900EBC00101EB0010616849005A
:103C9000B0FBF1F0B0FBF5F06FF01801484307EB13
:103CA000800108EBC100B0FBF5F000F0F80006EB76
:103CB0004006FEF719F900EBC00101EB0010616846
:103CC0004900B0FBF1F7FEF70FF93CE055E0FEF7D5
:103CD000F3F800EBC00101EB001061684900B0FB94
:103CE000F1F0B0FBF5F00601FEF7E6F800EBC001DD
:103CF00001EB001061684900B0FBF1F7FEF7DCF85A
:103D000000EBC00101EB001061684900B0FBF1F06D
:103D1000B0FBF5F06FF01801484307EB800108EBAA
:103D2000C100B0FBF5F000F0F80006EB4006FEF72E
:103D3000C3F800EBC00101EB001061684900B0FB63
:103D4000F1F7FEF7B9F800EBC00101EB0010616874
:103D50004900B0FBF1F0B0FBF5F06FF018014843FB
:103D600007EB800108EBC100B0FBF5F000F00700A5
:103D7000216830448860BDE8F081FEF79DF800EBD3
:103D8000C00101EB001061688900B0FBF1F6FEF79D
:103D900093F800EBC00101EB001061688900B0FBF3
:103DA000F1F0B0FBF5F06FF01801484306EB80012D
:103DB00008EB0110B0FBF5F000F0F006FEF77CF820
:103DC00000EBC00101EB001061688900B0FBF1F06D
:103DD000B0FBF5F006EB0016FEF76EF800EBC00145
:103DE00001EB001061688900B0FBF1F7FEF764F8A1
:103DF00000EBC00101EB001061688900B0FBF1F03D
:103E0000B0FBF5F06FF01801484307EB800108EBB9
:103E10000110B0FBF5F000F00F00A9E7001401401D
:103E20000010014090F83910212901D0022070477C
:103E30008168B1F5805F016A0BD04A1C026202689A
:103E400009785160C18C491E0904090CC1840ED047
:103E500017E009880268C1F308015160016900296F
:103E6000016A02D0491C0162ECE7891CFBE701688A
:103E7000CA6822F08002CA600068C16841F040014F
:103E8000C16000207047000010B50448FFF78EFBAA
:103E9000BDE810400148FEF705BE00004C020020BE
:103EA00010B50448FFF782FBBDE810400148FEF75B
:103EB000F9BD00008C02002010B50448FFF776FB26
:103EC000BDE810400148FEF7EDBD0000CC02002027
:103ED00010B50448FFF76AFBBDE810400148FEF743
:103EE000E1BD00000C03002070B50A7852B94A7891
:103EF00042B98A7832B9CA7822B90A7912B94A79AC
:103F0000002A4AD00A88C2F30A06A6F5806606800F
:103F10004A788B78D20842EA4312C2F30A04A4F525
:103F2000806444808A78CB78920942EA83020B79D4
:103F3000F61D42EA8322C2F30A03A3F5806383805D
:103F40000A794D79520842EAC512C2F30A02A2F573
:103F500080620025C2800E2E00D80580241D082C0A
:103F600000D845801B1D082B00D88580121D082A0B
:103F700000D8C5804A79920902724A79C2F30112C7
:103F80004272CA8842810A8982814A89C2810A7B37
:103F900002744A7B4274C989418270BDFEE7000009
:103FA00030B50C46050014D0022C12D90A48A11EC7
:103FB00002882846FCF77EFE2919C2B211F8023C9D
:103FC0009A4206D111F8011CB1EB102F01D101204A
:103FD00030BD002030BD00002401002030B50C466B
:103FE00005000ED0022C0CD9601E81B2FF2228469B
:103FF000FCF776FE291911F8011C814201D101203C
:1040000030BD002030BD4100080218BF04200A0E58
:1040100018BF40F001004FF07F4232EA010108BFB3
:1040200040F00200012808BF0520704710EE100A7A
:1040300010B510EE901A4FF0684202EB40032DEDE0
:10404000028BB3F1654F3CBF02EB4102B2F1654F09
:104050007CD200BFC0F3C753C1F3C7529A1A1B2AC0
:1040600009DD10F0004F14BF9FED6E0A9FED6E0A40
:10407000BDEC028B10BD12F11A0F1BDA11F0004FCC
:1040800009D010F0004F0CBF9FED680A9FED680A41
:10409000BDEC028B10BD80EE208A18EE100AFFF7EF
:1040A000B2FF042808BF00F0EDF8B0EE480ABDECFE
:1040B000028B10BD4200B2EB410F37D910F0004F18
:1040C00019BFDFED5C1A9FED5C1ADFED5C1A9FED06
:1040D0005C1AB0EE602A0A46F1EE400A80F0004118
:1040E000B0EE420A10460A1A5200B2F1807F34D272
:1040F000484010F0004FDFED532A9FED533A1DBFAB
:10410000BEEE002A71EEE21A31EE431AB6EE002A34
:1041100004BF71EEA21A31EE031AF0EE402A42EE0D
:10412000602A40EE020A82EEA02A18E011F0004F49
:1041300004BF9FED461AF0EE411AD4D010F0004FA4
:104140001CBFDFED431A9FED431A00E026E004BFD9
:10415000DFED411A9FED411AC5E780EE202A22EEDD
:10416000020ADFED3F0ADFED3F2ABDEC028B40EE95
:10417000202ADFED3D0A40EE220ADFED3C2A40EE28
:10418000202ADFED3B0A40EE220A22EE000A00EE72
:10419000201A31EE020A30EE210A10BD4FF07F42A4
:1041A000B2EB400F28BFB2EB410F05D2BDEC028B42
:1041B000BDE8104000F062B840EA01035B0008BFB0
:1041C00041F0FF410BD0B2EB400F08BFB2EB410F03
:1041D00008D120F0804000EE100A21F0804100EE6E
:1041E000901A37E7B2EB400F12BF5FEA410240F08E
:1041F000FF4001F000413FF42DAF4A0092EA400336
:104200003FF528AF002AACBF9FED1A1A9FED1A1A8E
:1042100020EE010A60EE810A10EE100A10EE901AEC
:1042200018E70000DB0FC9BFDB0FC93FDB0F4940B8
:10423000DB0F49C00000C9BF22AAFDB90000C93F79
:1042400022AAFD390060ED3EC30ACE37000000000F
:10425000000049C022AA7DBA0000494022AA7D3A46
:104260002DAD65BD8FB8D53D0FB511BE61C84C3EB3
:10427000A8AAAABE0000804F0000802F30EE200ABE
:10428000704700009FED020A20EE000A7047000010
:1042900000000010D0ED000AF4EEC00AF1EE10FAB2
:1042A00001DD80ED000AD0ED000AB1EE400AF4EE27
:1042B000C00AF1EE10FA01D280ED000A704700004A
:1042C000F0B4134B40F2FF141D6B2C601D6B0024E7
:1042D000AC601D6BEC601E6B082535611E6B050A1A
:1042E00035751D6B68751D6B080AA875186BC1754F
:1042F000196B100A0876186B4FF47A714276186BB6
:104300008476186BC476F0BC1846FDF701B800003F
:10431000740100202DE9F0411B4D00242DED028B8E
:104320004FF47A769FED198A42F2107704EBC400BD
:1043300000EB400005EB8000B1EE041AF0EE480AF5
:10434000B1EE000A33463A460321FFF76DF9641CCB
:10435000042CEBDBB7EE000ADFED0D0A50234FF41F
:104360001672B0EE601A03210A48FFF75DF909489A
:104370009FED090A80ED140A9FED080A80ED150AE9
:10438000BDEC028BBDE8F081AC470020CDCC4C3DAC
:10439000000000005C49002000A0AA4400000C427C
:1043A0002DED028B82B0FFF7B5FF4FF47A70FDF769
:1043B000ECF9544DDFF85C91DFF844A1524F9FEDCA
:1043C000538ADFF84C8105F1300B09F1080600BF74
:1043D00001F0D4F9504800F027F9287E052864D070
:1043E00085ED018A85ED008A9AF80000032878D0CF
:1043F00085ED028A594695EC030A40F2EE2000F062
:10440000BDFE002405EB4400B0F9300000EB800055
:10441000400000EE100AC4EBC40037F92000F8EEAB
:10442000C00A00EE100A04EBC40000EB4001B8EE35
:10443000C00A08EB810001F01FFABDEEC00A10EEC1
:10444000100A26F81400641C042CDBDBB7F90010FA
:10445000C9F80010B5F93010484601EB8101490058
:10446000C9F80410297E022903D02C49C96DC90757
:104470000BD000218160C9F80C1088ED0D8A88ED01
:10448000288A88ED438A88ED5E8AB6F90600009096
:10449000B6F90430B6F90220B6F90010204801F050
:1044A00039FC0A2001F038F992E71B48B0F90210F4
:1044B00000EE101A1B49B8EEC00AD1ED010A30EE29
:1044C000200A85ED010AB0F90000D1ED000A00EEE6
:1044D000100AB8EEC00A30EE200A85ED000A83E724
:1044E000FFE71148F0EE480AB0F9000000EE100AAC
:1044F0000E48B8EEC00A01F0BFF985ED020A79E76F
:104500006C0600203406002020440020000000003B
:10451000AC47002008000020784500207C060020E1
:1045200074010020484C00201C0000205C49002041
:10453000074882B00068016841680091C16841F095
:104540001001C16014220349014802B0FFF7A6BA66
:104550004C0200208C45002000F06EFB642001F02E
:10456000DBF8DFF89880264C4FF48049DFF894A000
:10457000FDF7ACFA00273E463D46C8F8000000BFF4
:10458000FDF7A4FA05EB450104EB81014A68821AA4
:10459000886862F3172088608868800716D5886865
:1045A000CA68C0F30F2092B290420FD9886840F0D9
:1045B000010088608868761CC0F38500B84209DD78
:1045C0008868091DC0F38507216003E0886820F032
:1045D000010088606D1C0C2DD2DB1EB1206818B163
:1045E000012202E000202060002249465046FDF7EB
:1045F00067FA322001F090F8BAE700007800002056
:104600007C0600200014024000EB400110B5054874
:1046100000EB8104A068800702D5FDF757FA6060BF
:1046200010BD00007C06002008490A7E4A76007A08
:10463000012805D0022805D0032805D1052002E075
:10464000002000E0032008767047000034060020B8
:104650004A6B6FF00403D28A52BA02804A6B128B03
:1046600052BA12B292FBF3F242804A6B927E02710E
:10467000038B4383496B898A4ABA0283D31A8168C0
:10468000B3F5805F01DD491E03E013F5805F01DAB9
:10469000491C816002EB4131C288891A4FF4B4721F
:1046A000C1605143CA1701EBD24149130161704700
:1046B000496B898A49BA0183C1807047421A13B293
:1046C000B1F5805F08DBA1F58051884201DD184615
:1046D000704702F5005205E001F580518842F6DD91
:1046E000A2F5005210B270470948417A01290DD154
:1046F0000849098BA0F807100749098B20F8051F06
:104700005521417100210171FBF752BF7047000034
:104710007C4B0020104500202C45002070B54FF444
:104720007A742DED028BA5009FED2F8A9FED2F0A45
:104730002346B0EE481AF0EE480A2A4603212C48D8
:10474000FEF772FFB0EE481AF0EE480A9FED290A14
:1047500023462A4603212848FEF766FFB0EE481A92
:10476000F0EE480A9FED250A4FF4C87342F2283252
:1047700003212348FEF758FFB0EE481AF0EE480A2E
:10478000B3EE060A4FF44873E20003211D48FEF71A
:104790004BFFB2EE041AF0EE480AB2EE0E0A6300C6
:1047A00042F2107203211848FEF73EFFB1EE041AE0
:1047B000DFED160AB7EE080A2B4641F65832032100
:1047C0001348FEF731FFB0EE481ABDEC028B2246CB
:1047D000BDE87040DFED0F0A9FED0F0A4FF49673AE
:1047E00003210E48FEF720BF0000000000007043C8
:1047F000FC450020000054424047002000008C434C
:1048000068460020D4460020C84900209A99993E65
:10481000344A0020CDCCCC3D00003443A04A0020D7
:104820002DED088BFFF77AFF00F058FDE248E34CCE
:10483000817A552905D1B0F90510E161B0F9071069
:10484000A1619FEDDF9AF3EE059ADFEDDE8ADFF8D6
:1048500078B3B2EE048AB3EE04AA4FF0640A81463C
:10486000DA4DB5F90C0000EE100AD948B8EEC00ACE
:10487000C0EE090A30EEA90A84ED170AD4ED0A0A3F
:1048800000F0FAFFD248D34990ED0F0ABCEEC00AFF
:1048900010EE100A086000F053FDFFF725FFCE4E22
:1048A0005F46307870709BF80910012901D0012013
:1048B00009E0010001D003213170012804D13078D2
:1048C000012801D00020307001F04CFAC348A18BC0
:1048D000B0F9180009B2FFF7F1FE4042A080C048CD
:1048E000218BB0F9180009B2FFF7E8FE00EE100ABC
:1048F0006080B046B8EEC00AC0EE280AC4ED110AC6
:10490000B4F9040000EE100AB8EEC01A81EE280ACD
:1049100084ED120A307810B1032877D128E0C4ED75
:10492000050A9FEDB01A10EE900A84ED031AAE4905
:1049300084ED041A84ED021A884267D810EE900ABA
:10494000AA49884262DC10EE100A84ED040A10F1D4
:10495000814F5BD810EE100AB0F17E5F56DC032168
:1049600088F80010A24991ED000A88ED030A4DE095
:10497000C4ED050AB7F90C0000EE100AB8EEC00A43
:10498000DFED9CAA20EE2A0A10EE100A02F0AAF926
:1049900041EC1B0BB7F9060001F0A4FF9FED961B3D
:1049A00053EC112B01F0B6FF53EC1B2B02F0B0F8C7
:1049B00041EC1B0BE06802F095F953EC1B2B01F066
:1049C000E9FE01F0B5FEE060894898ED030AD0EDFC
:1049D000000A30EEC00A84ED040AB7F90400404230
:1049E00000EE100AB8EEC00ADFED850AB7F90A003A
:1049F00020EE200A00EE900AF8EEE00A00EEEA0A45
:104A0000D4ED020A30EE200A84ED020AD4ED020A47
:104A100094ED040A7B4800F02FFF7A4EB5F912009E
:104A200096ED0F0AC0EE080A00EE100A7648B8EEBE
:104A3000C01A81EE080A00F01FFF7449E06888423E
:104A400002D3BBEE040A04E07149884203DBB3EEF3
:104A5000090A84ED030AD4ED030A94ED050A6D48B2
:104A600000F00AFF6B4890ED0F0AB5F90E00C0EE9A
:104A7000080A00EE100A6848B8EEC01A81EE0A0A69
:104A800000F0FAFEA16D654F91FBFAF100EE101AED
:104A9000F96891FBFAF0F8EEC00A00EE100A6048DF
:104AA000B8EEC00A00F0E8FE207810B15D486065FD
:104AB00006E05B4890ED0F0ABDEEC00A84ED150AD2
:104AC000B7F90000D4ED150A00EE100A5648F8EECA
:104AD000E00AB8EEC00A00F0CFFED4ED050A9FED63
:104AE000530A642160EE800AFDEEE00AC4ED0C0A70
:104AF000D4ED030A60EE800AFDEEE00AC4ED0B0A75
:104B0000D4ED040A60EE800AFDEEE00AC4ED0E0A60
:104B1000D4ED020A20EE800ABDEEC00A84ED0D0A33
:104B2000688A10FB01F0206496ED0F0ADFED400A61
:104B300020EE200ABDEEC00A84ED0F0A99F80A00A3
:104B400055280ED198F8000001280AD03948C16DC7
:104B5000C90706D1416FC90703D1D0F88000C0074B
:104B60000ED02F489FED1F0A002280ED0D0A11463E
:104B70004FEA0200FFF7A4FB052000F0CDFD6FE631
:104B8000294890ED0F0ABDEEC00A10EE100A02B2DD
:104B9000214890ED0F0AB1EE400ABDEEC00A10EEBA
:104BA000100A01B2184890ED0F0ABDEEC00A10EECF
:104BB000100A00B2DEE700007C4B00201800002045
:104BC0005CEFA6430000B641784500204E4B002024
:104BD000A04A0020380400406C0600202C4500202C
:104BE0001045002000000000000020C100004040EF
:104BF000FC0000200AD7233CFA7E6ABC7493683F0D
:104C0000A69BC43A68460020D44600200000A0C1FC
:104C10000000C841FC4500204047002048450020D6
:104C2000C849002060F0FFFF344A002000007A44A9
:104C30000000C8427C06002070B54948002404608A
:104C4000C16D21F00101C165C16D21F0FC01283168
:104C5000C165016E6FF30F0164310166C16D414A98
:104C60001140C1658465C16D41F00201C165002339
:104C700003EB430100EB81010D6A25F001050D6294
:104C80000E6A9D1D65F387060E624D6A6FF30F0570
:104C9000C8354D620D6A15400D62CC610D6A45F054
:104CA00002050D625B1C042BE2DB50F8141F21F09F
:104CB00001010160016821F0FC01143101604168CB
:104CC0006FF30F010A31416001681140016040F843
:104CD000044C016841F002010160C16E21F0010144
:104CE000C166C16E21F0FC012031C166016F6FF316
:104CF0000F01C8310167C16E1140C1668466C16E83
:104D000041F00201C166016E21F001010166016EF0
:104D100021F0FC0120310166416E6FF30F01C831B3
:104D20004166016E11400166C465016E41F00201E9
:104D30000166816F21F001018167816F21F0FC0123
:104D400008318167C16F6FF30F01C831C167816F8F
:104D5000114081674467816F41F00201816770BD36
:104D60007C060020FF0000FF00EB4002F0B4274863
:104D700000EB8202507C012846D124480023937422
:104D80000C38B1F90050046825440560B1F902609F
:104D9000446834444460B1F9041086680E441C49E8
:104DA00086600F687F1C0F60642F2DDB00EE105AA9
:104DB0000B60F8EEC00A9FED170A80EE801AFDEE38
:104DC000C10A10EE901A00EE904A22F80B1FF8EE7E
:104DD000E00A80EE801AFDEEC10A10EE901A00EE95
:104DE000906A5180F8EEE00A80EE801ABDEEC10AAA
:104DF00010EE101A91808360436003609371552018
:104E0000D071F0BCFBF7D4BBF0BC70477C4B0020EA
:104E1000200100200000C84206220146492000F07F
:104E2000F3BB10B530216A2000F01CFC0A2000F012
:104E300073FC0D21242000F015FC0A2000F06CFC0E
:104E40000E21282000F00EFC0A2000F065FC8E21C7
:104E5000312000F007FC0A2000F05EFC01210B204D
:104E600000F07BF80A2000F057FC002000F059F811
:104E7000102801D0012010BD01210B2000F06DF899
:104E80000A2000F049FC00210A2000F066F80A2000
:104E900000F047F808B1022010BD0A2000F03CFCE9
:104EA00000210B2000F059F80B2000F03AF808B16F
:104EB000032010BD0A2000F02FFC2421412000F027
:104EC0004CF8412000F02DF8242801D0042010BD1A
:104ED0000A2000F021FCC021422000F03EF84220D0
:104EE00000F01FF8C02801D0052010BD0A2000F0F6
:104EF00013FC00212A2000F0B5FB0A2000F00CFC76
:104F00000021342000F0AEFB0A2000F005FC062250
:104F100003210E2000F0B6FA642000F0FDFB002013
:104F200010BD10B50146322000F09CFB0A2000F0B5
:104F3000F3FB8021342000F095FB0A2000F0ECFB0D
:104F4000352000F039FB04460021342000F08AFBB4
:104F50000A2000F0E1FB204610BD70B50D46044666
:104F600000212A2000F07EFB022000F0D5FB214624
:104F7000292000F077FB022000F0CEFB29466420B8
:104F800000F070FB022000F0C7FB81212A2000F016
:104F900069FBBDE870400A2000F0BEBB074882B044
:104FA0000068016841680091C16841F01001C1606A
:104FB00064220349014802B0FEF770BDCC02002014
:104FC000B14B002070B5214E1F4C3068C4F8090069
:104FD00030796073608804F10905401C608028788E
:104FE000A5282BD105213046FEF7F8FF012825D151
:104FF000B5F8011030460931FEF7D2FF01281DD166
:10500000B6F80500A08080B2314601280CD00228F5
:1050100015D0032812D1B5F8012006F18700BDE8AC
:105020007040C91DFBF7A0B90848B5F801206430ED
:10503000C91DFBF799F96088401E608070BD024869
:10504000B5F80120801DEAE724010020B14B0020C3
:1050500010B5047800222CB10023012C06D0022CBC
:105060000BD108E049B10121017006E021B1022114
:105070000170012201E001B90370104610BD00006B
:10508000FCF732FDFEF750FBFDF7B0FFFDF746FFE2
:10509000FDF7FEFEFEF714FAFEF752F8FDF71AFFD1
:1050A000FEF768F9FEF7A2F8FEF7E6F8FEF71CF93E
:1050B000FEF7ACF9FEF768F8FEF722FAFEF73CFAC5
:1050C000FEF756FAFFF734FAFFF768FF194800F0C9
:1050D000F3FA194800F0F0FA00F0ECFD4FF4FA6032
:1050E000FCF753FB00F036F800211248FCF750F8AB
:1050F00000211148FCF74CF800211048FDF7AAFCEC
:1051000004210F48FDF7A6FC00210D48FDF7A2FC85
:1051100000210C48FDF79EFC04210A48FDF79AFC8B
:10512000FBF728FAFBF73AFAFDF72EFF00F0FBFA3F
:10513000FEE7000074010020B4010020800500207B
:1051400008050020F805002001460020842900D031
:10515000C81C7047074882B0006801684168009128
:10516000C16841F01001C16011220349014802B039
:10517000FEF794BC0C030020CD4500203CB5DFEDCC
:105180004E1A10EE104A4D4A9FED4D2A4D4BDFED61
:105190004E2A944202D3B0EE420A05E010EE104AC5
:1051A0009C4201DBB0EE620A10EE904A944202D3B8
:1051B000F0EE420A05E010EE902A9A4201DBF0EE92
:1051C000620A11EE102A414B9A4202D39FED401A17
:1051D00006E011EE102A3F4B9A4201DB9FED3E1A8A
:1051E00030EE602A00246B4632EE012ABDEEC22A60
:1051F00012EE102A30EE202AADF8002032EE012AFD
:10520000BDEEC22A12EE102A30EEC02AB1EE400ADC
:10521000ADF8022030EE600A32EE012A30EE010ACB
:10522000BDEEC22A12EE102ABDEEC00AADF804206F
:1052300010EE102AADF8062033F91420002A01DD03
:10524000154600E0554200EE105AB8EEC00AB4EE22
:10525000E10AF1EE10FA06DD002A00DC524200EE0F
:10526000102AF8EEC01A641C042CE5DB00EE100ACC
:10527000B8EEC00AF4EEC01AF1EE10FA17DD00EE37
:10528000100A0020F8EEC00A80EEA10A33F91020BF
:1052900000EE902AF8EEE00A60EE800AFDEEE00AE9
:1052A00010EE902A23F81020401C0428EEDB009812
:1052B0000860019848603CBD000000000000C8C3C1
:1052C0000000C8C30000C8430000C8430000AFC3CB
:1052D0000000AFC30000AF430000AF4330B585B05E
:1052E000642000F019FA752000F066F912490024D4
:1052F0001422887011496846FBF77BF84FEA0D05C8
:1053000005EB4400417815F8140000F0ABF90120DA
:1053100000F002FA641CE4B20A2CF1D30320FDF77A
:10532000B1FD0220FDF7A9FDFFF77BFD00F0F2F8CB
:1053300005B0002030BD000004010020446E0008CC
:1053400070B50E222DED028B3B20494900F05CF92F
:10535000474800F10E04018849BA2180418849BAC2
:105360006180818849BAA180C18849BAA181018937
:10537000628B49BA891AE1814189A28B49BA891A9B
:1053800021828089E18B40BA401A60823948FFF758
:1053900043FD384DA4F14200083D9FED371AA9683E
:1053A0008164A989A0F84C10D0F842100160D0F8AF
:1053B00046104160D0F84A108160B4F90C009FEDAE
:1053C000308A00EE100AA4F14200F8EEC00A80EE26
:1053D000810AF3EE050A30EE200A80ED030AB4F9E3
:1053E0000E1000EE101AB8EEC01A9FED240AC1EE9E
:1053F000000A80EE881A80ED041AB4F9101000EE4D
:10540000901AB8EEE01AC1EE000A80EE881A80ED1C
:10541000051AB4F9121000EE901AB8EEE01AC1EEB7
:10542000000A80EE880A80ED060AB4F9060000EE54
:10543000100AB4F90800F8EEC00A00EE100AB8EE3F
:10544000C00AFEF7F3FD20EE080A04F10E01002069
:1054500085ED010AFFF788FC21460120FFF784FC57
:10546000A11DBDEC028B0220BDE87040FFF77CBCA3
:10547000404B00200C0100205CEFA6436F128341DB
:105480003333654270B50E46044601461546282062
:1054900000F0E8F8022000F03FF90A21292000F08E
:1054A000E1F8022000F038F90121642000F0DAF878
:1054B000022000F031F944F08001252000F0D2F8FC
:1054C000022000F029F93146262000F0CBF8022016
:1054D00000F022F90321342000F0C4F8022000F08B
:1054E0001BF90321672000F0BDF8022000F014F939
:1054F00081212A2000F0B6F8062000F00DF945F0D1
:105500008001272000F0AEF8BDE87040022000F0D6
:1055100003B900002DE9F041264E002706F10E04E4
:105520004FF496750E2223493B2000F06DF8318828
:10553000A08A49BA0844A0827188E08A49BA08441E
:10554000E082B188208B49BA084420833189608B7E
:1055500049BA084460837189A08B49BA0844A08382
:10556000B189E08B49BA0844E083052000F0D4F803
:105570007F1CAF42D6DBB4F9140090FBF5F0A0829B
:10558000B4F9160090FBF5F0E082B4F9180090FB36
:10559000F5F02083B4F91A0090FBF5F000B26083B7
:1055A00090FBF5F0A083B4F91E0090FBF5F0E083CA
:1055B000BDE8F081404B0020F8B5104E04460022B3
:1055C00040213046FCF77CFA44F080000C4C372533
:1055D000621C20700123511E0A480095FCF7AEFEA4
:1055E000621C0123511E07480095FCF7A7FE01220B
:1055F00040213046FCF764FA6078F8BD00140240A0
:1056000004010020F4010020F8B5134F15460E46A2
:105610000446002240213846FCF752FA0F4944F074
:105620008000372408700E31A1F10D0208700123AB
:105630000E390B480094FCF781FE08492B46324690
:105640000E3107480094FCF779FE012240213846CC
:10565000FCF736FA0020F8BD0014024004010020D7
:10566000F4010020F8B5114F0E46044600224021F7
:105670003846FCF725FA04F07F000D4C3725621CF4
:1056800020700123511E0B480095FCF757FE267031
:10569000621C0123511E07480095FCF74FFE0122B2
:1056A00040213846FCF70CFA0020F8BD00140240F7
:1056B00004010020F401002030B58BB00446002026
:1056C000012103900490CDE906010E25CDE90815CE
:1056D000059000900190029069462046FBF710FB70
:1056E000694620460595FBF70BFB0848844203D129
:1056F000074820631C3060630648844204D1044894
:10570000403020631C3060630BB030BD740100205A
:1057100090440020B401002010B500B9012000F031
:1057200017FD002010BD10B500F046FD002010BD93
:1057300010B500F01BFF012803D0BDE8104000F0B9
:105740001BBE10BD30B5044685B00D46B0F908004B
:10575000FFF7FAFC002104AA0090CDE90121039192
:10576000208A2B4682B2D4E9001000F01BFE0128EB
:1057700002D0002005B030BD0498FBE730B53A4DAB
:105780003B489FED3A1A698AD0ED010ACA07B1EE8B
:10579000040A02D070EE800A03E08A0704D570EE96
:1057A000C00AC0ED010A01E080ED011A304B4A0742
:1057B000D3ED000A02D5B9EE040A01E0090704D5C9
:1057C00030EE800A80ED000A03E080ED001A90EDD3
:1057D000000A284CA1884A4200EE902AF8EEE00A1E
:1057E000B4EEE00AF1EE10FA04D800EE102AB8EE9A
:1057F000C00A0CE000EE901AF8EE600AB4EEE00A7F
:10580000F1EE10FA05DB00EE101AB8EE400A80ED5A
:10581000000A00EE902A90ED010AF8EEE00AB4EEDC
:10582000E00AF1EE10FA04D800EE102AB8EEC00A31
:105830000CE000EE901AF8EE600AB4EEE00AF1EE29
:1058400010FA05DB00EE101AB8EE400A80ED010AEE
:10585000297C0848FFF7FCFBA0700648697C401CC7
:10586000FFF7F6FBE07030BD784500200000000037
:10587000484C00203201002000B530EEC01A80ED07
:10588000080AC0ED050A80ED0B1AD0ED141A014686
:105890009FED5D2A30EEC00AF5EEC01AB1EE400A67
:1058A000F1EE10FA0ED0B5EEC01AF1EE10FA02DDEC
:1058B000F0EE410A01E0F0EE400AF4EEE10AF1EE0A
:1058C00010FA12DCD1ED150AF5EEC00AF1EE10FA6D
:1058D0000ED0B5EEC01AF1EE10FA01DDB0EE410ABD
:1058E000B4EEE00AF1EE10FA02D2B0EE420A00BDC8
:1058F000886D032802D0042833D064E091ED000ABB
:1059000001F1340020EE010A81ED0C0A91ED0D0A3F
:10591000D1ED010A00EE810A81ED0D0A91ED0A0A2E
:10592000D1ED020A31EE400A20EE200A81ED0E0A86
:1059300091ED180AB8EE400AFEF7ACFC91ED0C0AA6
:10594000D1ED0D0A01F13C0030EE200AD1ED0E0A36
:1059500030EE200A81ED0F0A91ED170AB8EE400AE9
:105960002FE0D1ED0A0AD1ED001AB0EE002A31EE97
:10597000600A01F1480020EE210A81ED0C0AD1ED08
:10598000011A61EE811A00EEC21AC1ED0D1AD1EDB5
:10599000090A30EE210A71EE200A91ED021A60EE3A
:1059A000810AC1ED0E0A30EE200A81ED110AD1ED17
:1059B000120A30EE800A81ED120A91ED170AB8EE54
:1059C000400AFEF767FC91ED0A0A81ED090A91EDA4
:1059D0000B0A81ED0A0A91ED070A81ED060A91EDA5
:1059E000080A81ED070A91ED040A81ED030A91EDA1
:1059F000050A81ED040A886D032802D091ED120A90
:105A000000BD91ED0F0A00BD0000000000F1580C30
:105A10008CE80E0080EC030A704780EC030A7047A4
:105A200070B50B4C054620684560E06821688542EA
:105A300005D2606BBDE87040091D00F0C9BA206B4B
:105A4000091D00F0C5FAA06A854200D2A56270BDAA
:105A5000BC00002070B5124E124C1AE000F0E0FBC2
:105A60003068D0B100F002FE00F0D6FAF068C568E8
:105A7000281D00F065FAA068401EA0606068401E06
:105A8000606000F0E9FA286B00F0FAFA284600F0AE
:105A9000F7FA60680028E1D170BD00F0E7FDF8E793
:105AA000D8430020BC00002010484FF4705142073A
:105AB00006D0C01D0D4920F00700411AC1F57051F4
:105AC0000B4A00230144C2E900030839103A21F0CF
:105AD000070111604B600B600B1AC0E90013936063
